:03E0040002E00A2D
:05E06300D20002E007FD
:03E0070002E0A490
:10E06800AE82AF838E048F051EBEFF011FEC4D707C
:10E07800F322AE82AF833000068EBDC2008018E561
:10E08800BF30E1FB9001F4C007C00612E068D0067B
:10E09800D00753BFFD8EBD8E828F832275A1557523
:10E0A800A1AA43B94090138812E06875A15575A1DB
:10E0B800AA53B97F75A10075A15575A1AA74F85521
:10E0C800B94407F5B975A10053BC7F75BEF343BCCD
:10E0D80010750A00750B00750C0090007312E07A39
:08E0E80090007412E07A80FE42
:06E03900E478FFF6D8FDBB
:10E017007900E94400601B7A0090E0F4780175A06C
:10E0270000E493F2A308B8000205A0D9F4DAF27568
:02E03700A0FF48
:10E03F007800E84400600A790175A000E4F309D87C
:10E04F00FC7800E84400600C7900900001E4F0A334
:04E05F00D8FCD9FA16
:0DE00A0075812012E0F0E582600302E0075E
:04E0F0007582002213
:00000001FF